:02000000DB2AF9
:100006008312031320089300831614180C2800008B
:0A001600072883121308F000080009
:100020008312031307104908A00003204A08A00008
:0600300003200714080084
:10003600831203134708C9004808CA0010200800A5
:0E0046008312031330088A002F08820008007E
:10005400FF3083120313B400FF30B500FF30B60045
:10006400FF300330B1000030B2002030B300003064
:100074008316871283124308043A031D4428831607
:100084008715462883168711071683129401831651
:1000940014139413831243089404450894044408E5
:1000A400831694048312450803195F284608003A0E
:1000B400031D5E2883161417652883124608031946
:0C00C40065288316141783129416080098
:1000D000013083120313C3004308083C031C762835
:0E00E0004308C900CA011020C30A6C2808009A
:1000EE00013083120313C3004308083C031C852808
:1000FE004308C900CA011020C30A7B282108C40086
:10010E002A08C50000302806031D8F280730270651
:10011E00031D93282908C40400302806031D9928BE
:10012E0002302706031D9D282908C5040730C70085
:10013E004408C8001B200230C7004508C8001B2019
:10014E0000302806031DAD28073027060319BC28EA
:10015E0000302806031DB528023027060319BC28D7
:0C016E002708C9002908CA00102008005A
:10017A0083120313F1018619F10A7108013A013059
:08018A00031D0030F000080025
:1001920083120313F1018618F10A7108013A013042
:0801A200031D0030F00008000D
:1001AA000030831203132806031DDD2802302706B8
:1001BA00031DED2829082A05F0000319EC28220856
:1001CA00003CA2002308031C013EA301A30202294A
:1001DA0000302806031DF32807302706031D0229CD
:1001EA0029082105F000031902292208003CA2006F
:1001FA002308031C013EA301A3022208A707230820
:10020A000318013EA80701302905F1007108013AD7
:10021A00031D16290230A9000130A5000030A600EE
:10022A00AD2902302905F1007108023A031D2D2972
:10023A0000302606031D232901302506031D28291F
:10024A000430BD002A290130BD003D08A900AD29AE
:10025A0004302905F1007108043A031D44290030CD
:10026A002606031D3A2901302506031D3F290830B9
:10027A00BE0041290230BE003E08A900AD2908305F
:10028A002905F1007108083A031D5B29003026068A
:10029A00031D512901302506031D56291030BF00C0
:1002AA0058290430BF003F08A900AD29103029059C
:1002BA00F1007108103A031D722900302606031D49
:1002CA00682901302506031D6D292030C0006F29D9
:1002DA000830C0004008A900AD2920302905F100E6
:1002EA007108203A031D892900302606031D7F293B
:1002FA0001302506031D84294030C10086291030AB
:10030A00C1004108A900AD2940302905F100710852
:10031A00403A031DA02900302606031D9629013004
:10032A002506031D9B298030C2009D292030C2006A
:10033A004208A900AD2980302905F1007108803AE8
:10034A00031DAD294030A900FF30A500FF30A600EB
:10035A0000302806031DB329013027060319BE29D8
:10036A0000302806031DBB29083027060319BE29B9
:0A037A00C0290130A400772008001C
:100384003C3083120313A1003C30AA000530A700BF
:100394000030A8001030A900FF30A200FF30A300F5
:1003A4000130A5000030A600A401682077200800D1
:1003B4000F3083120313C900CA0110200C30C90086
:1003C4000130CA0010200930C900CA0110200A30C7
:1003D400C9000830CA0010200B30C9000730CA0019
:0403E40010200800DD
:1003E80023208A110A128000840AAF0A0319B00A6E
:0803F800F003031DF4290800C5
:1004000083120313F1010618F10A7108013A013051
:08041000031D0030F00008009C
:10041800831203133D08013A031D3B2A252A1E3087
:10042800A1003A2A3C30A1003A2A7830A1003A2AA1
:10043800F030A1003A2AF030A1003A2A3C30A1005D
:100448003A2A21080F3A0319132A21081E3A0319D8
:10045800162A21083C3A0319192A2108783A03195F
:100468001C2A2108F03A03191F2A222A632A4E2A35
:100478001E30AA00632A3C30AA00632A7830AA00FA
:10048800632AF030AA00632AF030AA00632A3C30BD
:10049800AA00632A2A080F3A03193C2A2A081E3A96
:1004A80003193F2A2A083C3A0319422A2A08783AAB
:1004B8000319452A2A08F03A0319482A4B2A080042
:1004C800831203133D08013A031D932A7D2A0F3036
:1004D800A100922A0F30A100922A1E30A100922A70
:1004E8003C30A100922A7830A100922A3C30A10029
:1004F800922A21080F3A03196B2A21081E3A031978
:100508006E2A21083C3A0319712A2108783A0319FE
:10051800742A2108F03A0319772A7A2ABB2AA62ACC
:100528000F30AA00BB2A0F30AA00BB2A1E30AA002F
:10053800BB2A3C30AA00BB2A7830AA00BB2A3C3030
:10054800AA00BB2A2A080F3A0319942A2A081E3A35
:100558000319972A2A083C3A03199A2A2A08783A4A
:1005680003199D2A2A08F03A0319A02AA32A080089
:1005780083120313F1010619F10A7108013A0130D7
:08058800031D0030F000080023
:10059000831603130710831207148316871187121B
:1005A0008312871187120130C300C401C5010130D5
:0605B000C6002A2008002D
:1005B6003C3083120313A100FF30A200FF30A300DA
:1005C600A4010130A500A6010430A700A80110303F
:1005D600A9003C30AA00AB01AC01AD01AE01FF3071
:1005E6008316860087018312860187018316811789
:1005F600C822DA21C2212408031D572BB701B801EE
:10060600D52003303802031D0A2BE83037020318C1
:10061600562BBD207008B900BC227008BA00C9204C
:100626007008BB0000227008BC0039080319222B91
:100636002D08031D222B0130BD000C2277203A081D
:1006460003192C2B2E08031D2C2B0130BD00642210
:1006560077203B080319362B2B08031D362B023057
:10066600BD000C2277203C080319402B2C08031DE3
:10067600402B0230BD00642277203908AD003A08CD
:10068600AE003B08AB003C08AC001530FC00C630A1
:10069600FD00FD0B4C2BFC0B4C2B00000830B70764
:1006A6000318B80A042BFE2A0330FB008A30FC002C
:1006B6005530FD00FD0B5D2BFC0B5D2BFB0B5D2B05
:0806C60000000000FD2A662B74
:02400E004A2F37
:00000001FF
